:020000040800F2
:1000000088070020A10100081D2C000831210008EC
:10001000192C000879080008152D000800000000C0
:10002000000000000000000000000000092D000892
:100030007D08000800000000212C00080D2D00089C
:10004000BB010008BB010008BB010008BB010008A0
:10005000BB010008BB01000881080008BB010008C3
:10006000BB010008BB010008BB010008BB01000880
:10007000BB010008BB010008BB010008BB01000870
:10008000BB010008BB010008BB010008BB01000860
:10009000BB010008BB010008BB010008BB01000850
:1000A000BB010008BB010008BB010008BB01000840
:1000B000BB010008BB010008BB010008BB01000830
:1000C000BB010008BB010008BB010008BB01000820
:1000D000BB010008BB010008BB010008BB01000810
:1000E000BB010008BB010008BB01000800F002F8DA
:1000F00000F046F80AA090E8000C82448344AAF17C
:100100000107DA4501D100F03BF8AFF2090EBAE879
:100110000F0013F0010F18BFFB1A43F0010318473B
:10012000584C0000784C0000103A24BF78C878C1C1
:10013000FAD8520724BF30C830C144BF04680C60ED
:10014000704700000023002400250026103A28BF35
:1001500078C1FBD8520728BF30C148BF0B60704739
:10016000642900F03981632900F0A18200207047E2
:100170001FB59DE8030000F0BBF91FBD10B510BD11
:1001800000F006FB1146FFF7F3FF02F069FE00F0F6
:100190005FF903B4FFF7F2FF03BC00F0F3FA0000CD
:1001A0000948804709480047FEE7FEE7FEE7FEE70B
:1001B000FEE7FEE7FEE7FEE7FEE7FEE70448054947
:1001C000054A064B70470000112D0008ED0000089D
:1001D0008801002088070020880300208803002071
:1001E00070B50446051F00F067F90068002C14BFC5
:1001F000446870BD002C18BFAC423CBF2046646808
:10020000F8D301680A18AA4218BF456003D12A68CA
:1002100005461144016028684119A1421CBF6C6069
:1002200070BD6168696021680844286070BD70B560
:100230000D460646041F00F03FF90268BDB1DEB16D
:1002400005F10B0020F00701A9423CBF002070BD62
:1002500023688B4238BF506813D35A1A082A36D302
:10026000601840F8042B2160FFF7BAFF2FE03046FA
:10027000FFF7B6FF002070BD2846BDE8704000F0D3
:1002800066B9002818BFA0423CBF02464068F8D3B8
:1002900003EB040C84451CD1D0F800C063449942A0
:1002A00017D8A3EB010CBCF1080F0DD3D0F804C094
:1002B0006318C3F804C0D4F800C000686044401A52
:1002C00018602160536002E0236040685060201D88
:1002D00070BD284600F03BF9050008D03146206883
:1002E000021F284600F0EFF9201DFFF779FF28468E
:1002F00070BD00000FB41CB5074B06AA7B446946CD
:100300000090059800F0B1F90020694600F0C0F9AE
:100310001CBC5DF814FB0000910300002DE9F041C6
:100320000E460446002020622046E168884730B32C
:10033000252805D0D4E901219047206A401CF2E726
:10034000E168204600278847050018D0A5F1410044
:10035000192802D820354FF4006732462946204636
:100360002760FFF7FDFE40B1012804D0F61D26F0FE
:1003700007060836D8E7361DD6E72846DAE7206AAA
:10038000BDE8F08170B50C460546012A05D02878F5
:10039000800600D5EA69002302E0012305E05B1C2A
:1003A000934202D2E05C0028F9D1A869E618C01A8D
:1003B000A861286A184428622846AFF3008004E048
:1003C000D5E9012114F8010B9047B442F8D328462F
:1003D000AFF3008070BD00002DE9F0410646002417
:1003E00010687529314616A510D0AFF3008000289B
:1003F00002DA404213A507E031688A0701D512A549
:1004000002E0490704D511A5012401E0AFF3008003
:1004100000210A2206F1240709E0B0FBF2FCB0FB40
:10042000F2F302FB1C00303078541846491C0028B7
:10043000F3D123462A463046BDE8F04100F0B6B875
:10044000000000002D0000002B0000002000000034
:1004500010B50446AFF300802046BDE81040FFF71A
:1004600098BE4FF0000200B51346944696462039D8
:1004700022BFA0E80C50A0E80C50B1F12001BFF45D
:10048000F7AF090728BFA0E80C5048BF0CC05DF8C3
:1004900004EB890028BF40F8042B08BF704748BF11
:1004A00020F8022B11F0804F18BF00F8012B704785
:1004B00070477047704700000048704728000020D0
:1004C000704770477047704738B504460A460020A9
:1004D0006946AFF30080002808BF38BD0246009986
:1004E000204600F02EF9012038BD012000F043B96C
:1004F000F8B5AFF30080054600200C46102000BF81
:100500000646A819A0420DD9324669460020AFF32D
:100510000080070008BF00F02EF90098A04218BF25
:100520000546C419FFF7C8FF05600746F01D20F017
:1005300007004619284600F0FDF8B44208BFF8BD90
:10054000A21B31463868BDE8F84000F0FAB870B533
:100550000646FFF7B1FF056806F10B0020F007041F
:10056000B4429CBF002070BD2B466A68BAB11068C7
:10057000A04210D304F1080188423CBF5068586083
:1005800007D35168101941601168091B0160586058
:100590001460101D70BD13465268002AE7D1214631
:1005A0002846FFF791FF0028DED170BD2DE9F04706
:1005B0000D4699469246044600F1240801688806D3
:1005C00004D5E06921F01001216000E00120A8427B
:1005D00001DD471B00E00027A1697A1902EB090041
:1005E000081AA0612078C00602D42046AFF300802C
:1005F000002608E0D4E901211AF806009047206A95
:10060000401C761C20624E45F4DB2078C0060AD5DB
:100610002046AFF3008006E0D4E901213020904766
:10062000206A401C2062381EA7F10107F4DC07E0B5
:10063000D4E9012118F805009047206A401C206287
:10064000281EA5F10105F3DC2046AFF300802078D9
:10065000000602D50220BDE8F0870120FBE700007C
:1006600001694A1C02610878704700B58FB0CDE976
:1006700001310021059105497944CDE90310114666
:100680006846FFF74BFE0FB000BD0000E5FFFFFF1F
:100690000A6802F8010B0A60704710B5436913B18C
:1006A000AFF3008001E0FFF76DFE012010BD12786E
:1006B00000F124010A7000224A700122EDE711685E
:1006C0004FF0FF32E9E710B5203AC0F00B80B1E8F7
:1006D0001850A0E81850B1E81850A0E81850203A77
:1006E000BFF4F5AF5FEA027C24BFB1E81850A0E880
:1006F000185044BF18C918C0BDE810405FEA827C9A
:1007000024BF51F8043B40F8043B08BF7047D207B0
:1007100028BF31F8023B48BF11F8012B28BF20F851
:10072000023B48BF00F8012B7047000000487047AB
:100730002000002000210160C0E901107047102056
:100740007047034640688C46002818BF88423CBF6B
:1007500003464068F8D318681844884207D00CF163
:10076000030020F00700001D411A521A0146081D1F
:100770000A60FFF735BD10B500F034F8BDE8104051
:1007800000F02BB801491820ABBEFEE7260002009E
:100790007546FFF7CBFFAE4605006946534620F08D
:1007A0000700854618B020B5FFF708FDBDE82040DA
:1007B0004FF000064FF000074FF000084FF0000B1D
:1007C000AC46ACE8C009ACE8C009ACE8C009ACE88C
:1007D000C00921F007018D467047002801D0FFF7BE
:1007E000D1BF704710B5012805D0002103A000F04B
:1007F00022F8012010BD09A1F8E700005349475233
:10080000544D454D3A204F7574206F6620686561E0
:1008100070206D656D6F7279000000003A204865A8
:100820006170206D656D6F727920636F7272757083
:1008300074656400704770B505460C460A2000E0F8
:100840006D1C00F011F835B128780028F8D102E0CD
:10085000641C00F009F814B120780028F8D1BDE834
:1008600070400A20AFF3008008B569468DF800009B
:100870000320ABBE08BD0000FEE70000704700008B
:1008800070B540F21416C2F200063068642140F6DA
:100890000044416381630120C4F2010401F0B6FC0D
:1008A000802001F0B3FC1BA001F01CFDC02001F072
:1008B000ADFC1CA001F016FD04F5806520464FF448
:1008C0000071012200F0CEFA4FF4FA7000F0A4F8A3
:1008D00020464FF40071002200F0C4FA4FF4FA7081
:1008E00000F09AF828464FF4005100F0B5FA0028BD
:1008F000E4D100BF28464FF4005100F0ADFA0028C3
:10090000F8D0316832224A6301208A63BDE8704022
:1009100000F088B92D2D202043414E482042414F00
:10092000202D2D002D2D20204D6F6920586520523F
:1009300061202D2D0000000070B542F20C06044627
:10094000C4F2020600F094FA3168C90718D1306881
:10095000800644BF202030603068C00607D430696C
:10096000C00704D1306840075CBF002070BD30680C
:10097000C00623D40020316849072BD434E000BFDF
:10098000002C47D00546601C0ED13068C007DED071
:100990003068C0071CBF30685FEAC070D7D03068CD
:1009A000C007F2D1D3E700BF00F062FA401BA042BB
:1009B00030D83068C007F7D1C9E700BF40F26010F7
:1009C000C2F20000C16941F00201C161102031682A
:1009D000490709D540F26011C2F20001CA6940F02E
:1009E000040042F00102CA613169C90702D13060D6
:1009F000012070BD40F26011C2F20001CA6942F0EC
:100A00000402CA61316921F00101316130600120C5
:100A100070BD00BF032070BDB0B5044600F028FAD9
:100A2000054640F21400C2F200000078611C18BFB5
:100A3000044400BF00F01CFA401BA042FAD3B0BD32
:100A40002DE9F04381B040F26016C2F20006327E1A
:100A5000012A03D1022001B0BDE8F0830546012040
:100A60002C6830764CF250308846FFF765FF022C38
:100A70001CD100284ED1002042F21004F061C4F2D3
:100A80000204206840F004002060206840F040002C
:100A900020604CF25030FFF74FFF216821F0040135
:100AA00021600021317601B0BDE8F08390BB4FF0AA
:100AB000FF30C8F80000D5E9027007EB80208742BC
:100AC00028D242F21004C4F202044FF0000900BF21
:100AD000C6F81C90206840F0020020606760206823
:100AE00040F0400020604CF25030FFF725FF2168B5
:100AF00021F00201216098B9D5E9020107F580676C
:100B000000EB81208742E3D300200021317601B041
:100B1000BDE8F08301200021317601B0BDE8F0830B
:100B2000C8F800700021317601B0BDE8F083000004
:100B300042F21001C4F20201086840F08002002075
:100B40000A6070472DE9F04F81B040F26019C2F29F
:100B50000009924699F81820012A03D1022001B019
:100B6000BDE8F08F8046012089F818004CF2503023
:100B70009B460E46FFF7E0FEA0BB404642F2100740
:100B8000B8F1020F18BF0420C4F20207B8F1010F38
:100B900008BF404645424FF000080024C4F1200140
:100BA000C9F81C802AFA04F00BFA01F13A680843EC
:100BB000B4F1200158BF2BFA01F042F00101396075
:100BC00026F8020B4CF25030FFF7B6FE39680135BB
:100BD00021F0010248F100013A6018B9002904F13E
:100BE0001004DBD0002189F8181001B0BDE8F08FA7
:100BF00042F20400C4F20200C16809065CBF002092
:100C0000704740F22311C4F26751016048F6AB11FE
:100C1000CCF6EF510160C068C0B2C0097047000057
:100C20007047000040F21441C4F201010A68024218
:100C300014BF08607047FFF7F3BF00002DE9F04FC5
:100C400082B00E68002E00F0038141F20042C4F22F
:100C50000102042340F2004E904208BF03234FF6E6
:100C6000FF7CC4F2010E009300240123C1F2100C9A
:100C70004FF0000A4FF0000949E000BF012704F0DF
:100C80000C030F229A402BEA020207FA03F34FEA01
:100C90009A051A4346F82520D1F804B040F20C45D5
:100CA0005FEACB22DEF8082054BF22EA080242EABB
:100CB0000802C4F20105CEF808202A685FEA8B23F7
:100CC00054BF22EA080242EA08022A605FEA8B3334
:100CD000DEF8042054BF22EA080242EA08025FEA72
:100CE000CB33CEF80420DEF800204FF0010354BFD0
:100CF00022EA080242EA0802CEF800200E680AF151
:100D0000010A36FA0AF204F1040400F0A18003FAA1
:100D10000AF816EA080FF1D04E68664512DC122E6A
:100D200056D8DFE806F0350B45495555555555550C
:100D3000555555555555554D510000BFD1F80C909E
:100D400046E000BF4FF6FF72C1F2210296420FDC6F
:100D50000022C1F2110296421AD00022C1F2120200
:100D6000964215D00022C1F22102964210D02FE007
:100D70000022C1F2220296420AD00022C1F23102C0
:100D8000964205D00022C1F23202964220D100BF25
:100D90008A684AB1012A14BFC0F81480C0F81080D4
:100DA0004FF0080914E000BF4FF0040910E000BF45
:100DB000CA6802F108090BE04FF0000908E000BF23
:100DC000CA6802F1040903E0CA6802F10C0900BF15
:100DD00022460646BAF1080F24BF203A0436376887
:100DE0000F25954027EA050509FA02F22A433260E9
:100DF000CA79D2067FF582AF41F21803C4F202032A
:100E00001A68AEF57E7642F001021A601A6802F0A6
:100E100001020192019A2AF0030256F802B040F64C
:100E20000002C4F20102904210D040F60042C4F227
:100E3000010290423FF422AF41F20002C4F20102EB
:100E4000009F904208BF022719E700BF002716E75E
:100E500002B0BDE8F08F00008068084018BF012094
:100E600070470000002A08BF0904016170470000B4
:100E700040F28010C2F200000068704740F2140097
:100E800040F28011C2F20000C2F2000100780A684C
:100E9000104408607047000080B542F20000C4F2C0
:100EA0000200016841F010010160032000F08EF89B
:100EB000002000F005F800F027F8002080BD0000B9
:100EC00070B540F21406C2F2000640F21C013278FE
:100ED000C2F200014FF47A730968B3FBF2F20446E0
:100EE000B1FBF2F1084600F035FD0F2C4FF0010583
:100EF00008D838B94FF0FF3021460022002500F015
:100F000039F87460284670BD82B041F21800C4F20E
:100F100002000168022241F001010160016801F054
:100F2000010101910199416841F08051416040689F
:100F300000F08050009000980420C4F20100016885
:100F400062F31A61016002B070470000002848BFD8
:100F50007047C1B200F01F00012202FA00F04EF209
:100F60000012CEF2000242EAD10121F00301086032
:100F70007047000010B54EF60C5CCEF2000CDCF8A9
:100F80000030C3F3022E8EF00704042C28BF042483
:100F9000BEF103034FF0FF3E0EFA04F438BF002306
:100FA000A14399400EFA03F39A43114300F00F0254
:100FB00000F160430901043A03F5644362440028E8
:100FC00048BF02F10C03197010BD00004EF60C5121
:100FD000CEF200010A684FF6FF031A4060F30A22BE
:100FE00042F0806040F0FD70086070472DE9F043EA
:100FF00081B0002800F0858042F20008C4F20208A7
:101000000446D8F800000D4600F0070088420CD2D4
:10101000D8F8000020F007002843C8F80000D8F8EE
:10102000000000F00700A8426BD1206841F20409DB
:101030008107C4F2020917D5410705D5D9F8001078
:1010400041F4E061C9F80010010705D5D9F8001096
:1010500041F46051C9F80010D9F80010A26821F0DD
:10106000F0011143C9F80010C00741D1D8F80000C1
:1010700000F00700A8420CD9D8F8000020F00700C3
:101080002843C8F80000D8F8000000F00700A84284
:1010900037D12068410707D5D9F80010E26821F45C
:1010A000E0611143C9F80010000708D5D9F8000025
:1010B000216920F4605040EAC100C9F80000D9F865
:1010C000002002F00C00082841F20020C0F27A0053
:1010D00050D144F6F843C2F38341C0F60003595C93
:1010E000D2033BD440F60010C0F23D00484341E03B
:1010F000606802280AD001282AD159F8041C890303
:1011000008D4012001B0BDE8F08300BF59F8041CE9
:101110008901F6D5D9F8001021F003010843C9F878
:101120000000FFF7A5FE064641F28837D9F8000017
:10113000616800F00C00B0EB810F97D0FFF798FECC
:10114000801BB842F2D9032001B0BDE8F08300BF94
:1011500059F8041C8907D4D5DCE700BFD9F8002072
:1011600044F6F643C2F34042C0F600039A5C48439B
:10117000B0FBF2F0D9F8001044F6E642C1F30311D7
:10118000C0F60002515C40F21C0220FA01F140F26C
:101190001800C2F200000068C2F200021160FFF7FE
:1011A0008FFE002001B0BDE8F08300002DE9F04182
:1011B00082B0002868D00446007841F20006C007DB
:1011C000C4F2020625D0706800F00C0004281BD081
:1011D000706800F00C00082802D17068C00313D4B6
:1011E0006068002800F06881B0F5A02F00F07C81D5
:1011F000B0F5803F00F07C81306820F480303060B2
:10120000306820F4802076E13068800301D5606882
:10121000D0B32078800718D5706810F00C0F07D075
:10122000706800F00C0008286ED17068C0036BD4A1
:101230003068800702D52069012825D130686169AE
:1012400020F0F80040EAC1003060207800071FD489
:101250002078400732D4E56995B1706800F00C0041
:10126000082840F08F80012D0ED07068216A00F4AC
:1012700080328A4208D1616A00F47010884203D13A
:10128000002002B0BDE8F081012002B0BDE8F0818D
:10129000A069002862D00020C4F242200121C0F8D9
:1012A0008014FFF7E5FD0546706A800700F18C8029
:1012B000FFF7DEFD401B0228F6D92AE1F06910F0A5
:1012C000805808D1F06940F08050F061F06900F07A
:1012D00080500090009847F20007C4F20007386879
:1012E000C00529D4386840F480703860FFF7C0FD2D
:1012F000054600BF3868C0051ED4FFF7B9FD401B86
:101300006428F7D905E100BF2069002840F20000F9
:10131000C4F2422000F0828001210160FFF7A8FDA5
:10132000054600BF306880073FF588AFFFF7A0FD96
:10133000401B0228F6D9ECE0E068002800F080802D
:10134000052800F09780012800F09880306A20F08E
:1013500001003062306A20F0040092E00020C4F204
:1013600042200021C0F88014FFF782FD054600BF2F
:10137000706A80077FF56CAFFFF77AFD401B02288B
:10138000F6D9C6E00027C4F2422700203866FFF7EE
:101390006FFD022D05460BD13068800140F1BE8003
:1013A000FFF766FD401B02284FF00300F4D968E701
:1013B000306880017FF564AFFFF75AFD401B0228BB
:1013C0004FF00300F4D95CE740F21C00C2F20000C9
:1013D000006844F6D351C1F26201A0FB0101480A42
:1013E000019000BF00BF0198411E002801913FF409
:1013F0002FAF00BF0198411E002801913FF428AF94
:1014000000BF0198411E002801913FF421AF00BFA9
:101410000198411E00280191E4D119E700210160E3
:10142000FFF726FD054600BF306880077FF50DAF4A
:10143000FFF71EFD401B02284FF00300F4D920E700
:10144000306A20F001003062306A20F0040030621F
:10145000FFF70EFD054641F2883700BF306A80076E
:1014600020D5FFF705FD401BB8424FF00300F5D92A
:1014700007E700BF306A40F004003062306A40F095
:1014800001003062FFF7F4FC054641F2883700BFE7
:10149000306A800706D4FFF7EBFC401BB842F7D94F
:1014A00037E000BFB8F1000F7FF4D5AEF06920F04F
:1014B0008050F061CFE600BF306820F480303060AB
:1014C000306820F480203060FFF7D2FC054600BF72
:1014D000306880037FF59DAEFFF7CAFC401B64288F
:1014E0004FF00300F4D9CCE6306840F4802030603F
:1014F000306840F480303060FFF7BAFC054600BF2A
:10150000306880033FF585AEFFF7B2FC401B6428CE
:10151000F6D9032002B0BDE8F08100BF206AB0F523
:10152000803F05D17168A26821F4003111437160D8
:101530007168626A21F474111143084370600120DC
:101540003866FFF795FC0446306880013FF598AE99
:10155000FFF78EFC001B02284FF00300F4D990E641
:1015600070B538B10446406A30B10020206104F102
:10157000140007E0012070BD6068B0F5827F03D0E1
:1015800004F11C00002101600026A66294F85100BD
:1015900020B9204684F8506000F038F8022084F822
:1015A000510094E8071001F48271036802F40442C8
:1015B00023F040030360236911440CF400621144DA
:1015C00003F002026369114403F00102A369E569B3
:1015D000114403F40072114405F03802256A1144E5
:1015E00005F08002A56A114305F400521143016021
:1015F000042101EA13414160C16921F40061C16124
:101600000120666584F85100304670BD70B586B023
:1016100040F60004C4F20104006804F520510026DD
:101620008842049602D006B070BD00BF41F2180097
:10163000C4F20200016802AD41F48051016001680A
:1016400001F4805101910199016841F004010160A8
:101650000068294600F0040001900198A020029043
:1016600002200390032005902046FFF7E7FA402070
:10167000CDE90206204629460496FFF7DFFA06B0B8
:1016800070BD00002DE9F04381B0044690F8500091
:10169000012803D1022001B0BDE8F08301201E46DD
:1016A00015460F4684F85000FFF7E2FB94F85110FE
:1016B0008146012912D06068B0F5827F40F0A48095
:1016C000A06800284FF0020008BF042906D00021BE
:1016D00084F8501001B0BDE8F08300BF002F4FF038
:1016E000010018BF002DF2D0002EF0D094F8510068
:1016F000002104281CBF052084F851006165A56302
:10170000E687A6872763E6862068A686216461644B
:101710000168490603D4016841F040010160616835
:10172000731EE268B1FA81F1B3FA83F3DDF8208029
:1017300049095B09B2F5006F41EA03016CD131B18F
:1017400037F8021BC1602763E08E0138E08601256F
:1017500018F1010031D101E0FFF78AFBE08E18B9E2
:10176000E08F002800F0C0802068816889070CD5D0
:10177000E18E51B1012D08D1216B002531F8022BEA
:10178000C2602163E18E0139E1868168C907E3D037
:10179000E18F0029E0D0C068A16B012521F8020B80
:1017A000A163E08F0138E087D6E700BFFFF760FB59
:1017B000A0EB0900404580F0AB80E08E18B9E08FC7
:1017C000002800F091802068816889070CD5E18E9F
:1017D00051B1012D08D1216B002531F8022BC260D7
:1017E0002163E18E0139E1868168C907DED0E18F8E
:1017F0000029DBD0C068A16B012521F8020BA16391
:10180000E08F0138E087D1E70220002184F85010F2
:1018100001B0BDE8F08300BF39B139780173206BA6
:1018200001302063E08E0138E086012518F10100C7
:1018300032D101E0FFF71CFBE08E10B9E08F0028E9
:1018400052D02068816889070ED5E18E61B1012DE3
:101850000AD1216B002509780173216B20680131C1
:101860002163E18E0139E1868168C907E2D0E18F09
:101870000029DFD0C068A16B01250870A06B013082
:10188000A063E08F0138E087D4E700BFFFF7F0FAEC
:10189000A0EB090040453BD2E08E08B9E08F18B3B9
:1018A0002068816889070ED5E18E61B1012D0AD1CA
:1018B000216B002509780173216B206801312163B8
:1018C000E18E0139E1868168C907DFD0E18F002907
:1018D000DCD0C068A16B01250870A06B0130A0634B
:1018E000E08F0138E087D1E72046802142464B4611
:1018F00001F098F9B0B1606D40F0200060652020E3
:1019000060650120002184F8501001B0BDE8F0832B
:10191000012084F851000320002184F8501001B008
:10192000BDE8F083A06838B9002000902068C16845
:101930000091806800900098606D00284FF00100D1
:1019400004BF84F851000020002184F8501001B039
:10195000BDE8F083411E0020B0EB116F1CBF0120D9
:1019600070474EF21002CEF2000251604EF6235143
:10197000CEF20001F0230B700721906011607047D8
:10198000B0B590F83C20012A04BF0220B0BD01F19F
:1019900008053CCDD1E900CE23F47C5322F47052EB
:1019A0001A432EF4F0431A432CF4E0431A4324F470
:1019B000C0431A432A43C96922F480420368114391
:1019C0005964002180F83C100846B0BD10B590F86D
:1019D0003C20012A4FF0020233D080F83D200268FB
:1019E000D2F804E0D2F808C00C682EF0700323434C
:1019F00040F2FF74C4F20004A24253600ADCB2F168
:101A0000804F13D040F20043C4F200039A420DD03D
:101A100011E000BF42F60043C4F201039A4205D030
:101A200040F60003C4F200039A4204D149682CF046
:101A30008003194391600121002280F83D1080F855
:101A40003C20104610BD0000002804BF0120704754
:101A500010B5044690F83D0028B9002084F83C00F9
:101A6000204600F067F8022084F83D00206840F22C
:101A7000FF730268C4F2000342F6004C9842C4F2BD
:101A8000010C15DCB0F1804F1AD040F20041C4F2D5
:101A90000001884214D0984218DCB0F1804F1DD06C
:101AA00040F20041C4F20001884217D01AE000BFA2
:101AB000604505D040F60001C4F200018842EAD139
:101AC000A16822F070020A439842E6DD604505D025
:101AD00040F60001C4F20001884203D1216922F4DA
:101AE00040720A43A36922F08001D4F804E0E2685E
:101AF000194360450160C262C0F828E002D1616903
:101B0000CCF8301001214161002084F8461084F89F
:101B10003E1084F83F1084F8401084F8411084F897
:101B2000421084F8431084F8441084F8451084F877
:101B30003D1010BD81B0006842F60041C4F20101C1
:101B4000884201D001B0704741F21800C4F202008F
:101B5000016841F400610160006800F400600090D9
:101B6000009801B07047000080B590F83C20012A31
:101B70004FF0020200F0C28080F83D20D0F800C093
:101B80004FF67772DCF8083023EA0202CCF808201E
:101B90000B684F2B28DC1F2B44DD202B45D0302B2E
:101BA00043D0402B40F0AC80D1F804E0C968DCF8A9
:101BB0002030DCF8202022F00102CCF82020DCF8D4
:101BC000182022F0F00242EA011123F00A0242EA50
:101BD0000E02CCF81810CCF82020DCF8081041F0E8
:101BE000470121F0300180E06F2B27DDB3F5005F66
:101BF00048D0B3F5805F7AD0702B40F08180D1E976
:101C000001E3C968DCF8082043EA0E0322F47F42AE
:101C100043EA01211143CCF80810DCF8081041F028
:101C2000770162E00BB1102B6AD1DCF8081021F0CB
:101C30007001194341F0070157E000BF502B35D028
:101C4000602B5DD1D1F804E0C968DCF82030DCF805
:101C5000202022F01002CCF82020DCF8182022F4FA
:101C6000704242EA013123F0A00242EA0E12CCF89F
:101C70001810CCF82020DCF8081041F0670121F0A2
:101C8000100132E0D1E901E3C968DCF8082043EA39
:101C90000E0322F47F4243EA01211143CCF80810DD
:101CA000DCF8081041F480411FE000BFD1F804E0E7
:101CB000C968DCF82030DCF8202022F00102CCF8E2
:101CC0002020DCF8182022F0F00242EA011123F073
:101CD0000A0242EA0E02CCF81810CCF82020DCF8F8
:101CE000081041F0570121F02001CCF80810002223
:101CF000012180F83D10002180F83C10104680BD85
:101D00000122F5E780B586B0014640F60000C4F236
:101D10000100096800F5105300229942049201D095
:101D200006B080BD41F21801C4F202010A6842F017
:101D300004020A60096801F00401019101994FF45D
:101D40004071029102210391059102A9FEF776FFED
:101D500006B080BD2DE9F04390F83C30012B04BF64
:101D60000220BDE8F0834FEAB202032A3CD8DFE844
:101D700002F0034381BD00BF036842F600461D6ABE
:101D80001A6AC4F2010622F001021A621A465C685D
:101D900052F818CFB3428E68D1F800E025F0020562
:101DA00045EA06050CD1CE68D1E9057824F44074E3
:101DB00025F00C0526F004063C43354344EA0804AC
:101DC0002CF0730747EA0E075C609F614F68096952
:101DD0005F631D629F6947F008079F619F6927F055
:101DE00004079F61B2E000BF0121002280F83C207F
:101DF0000846BDE8F08300BF036842F600461D6A4E
:101E00001A6AC4F2010622F010021A621A46D3F8C6
:101E100004C052F8184FB3428E68D1F800E025F0A4
:101E2000200545EA061510D1CE68D1E9058725F0D1
:101E3000C0096FF0400505EA06152CF4406647EA34
:101E4000080745EA090546EA870C24F4E64444EA13
:101E50000E27C3F804C09F614F6809699F631D6224
:101E60009F6947F400679F619F6927F480679F61BE
:101E70006BE000BF036842F600461D6A1A6AC4F2AE
:101E8000010622F480721A621A46D3F804C052F88E
:101E90001CEFB3428E680C6825F4007545EA0625F0
:101EA00011D1CE68D1E9058725F44069360240F2A8
:101EB000FF4526EA05052CF4405647EA080745EA9F
:101EC000090546EA071C2EF073072743C3F804C030
:101ED000DF614F680969DF631D62DF6947F008074A
:101EE000DF61DF6927F00407DF612FE0036842F656
:101EF0000047D3F820C01A6AC4F2010722F48052C6
:101F00001A621A465C6852F81C5FD1F800E08E68CD
:101F1000BB4204D14F6924F4804444EA87142CF472
:101F2000005747EA063725F4E64646EA0E265C6087
:101F3000DE614E6809691E641F62DF6947F400674D
:101F4000DF61DF6927F48067DF61090213681943E5
:101F500011600021002280F83C200846BDE8F08393
:101F6000002804BF0120704710B5044690F83D00DA
:101F700028B9002084F83C00204600F067F80220D1
:101F800084F83D00206840F2FF730268C4F2000349
:101F900042F6004C9842C4F2010C15DCB0F1804FBF
:101FA0001AD040F20041C4F20001884214D0984295
:101FB00018DCB0F1804F1DD040F20041C4F20001A6
:101FC000884217D01AE000BF604505D040F60001F6
:101FD000C4F200018842EAD1A16822F070020A43EB
:101FE0009842E6DD604505D040F60001C4F20001EC
:101FF000884203D1216922F440720A43A36922F086
:102000008001D4F804E0E268194360450160C262CF
:10201000C0F828E002D16169CCF83010012141619B
:10202000002084F8461084F83E1084F83F1084F8AD
:10203000401084F8411084F8421084F8431084F86A
:10204000441084F8451084F83D1010BD704700001E
:1020500041B1082910D0042914BF00F1410200F158
:102060003F020BE090F83E20012A1CBF0120704780
:10207000022280F83E2013E000F140021278012A8B
:102080001CBF012070470222082907D0042914BF71
:1020900080F8412080F83F2002E000BF80F8402017
:1020A000006801F01F010122036A8A4023EA02014D
:1020B0000162036A42F64441C4F201011A43A1F1EC
:1020C0004403984202620FD040F2FF71C4F2000153
:1020D000884213DCB0F1804F1CD040F20041C4F2C2
:1020E0000001884216D01CE00A6842F400420A60EF
:1020F00040F2FF71C4F200018842EBDD42F600417C
:10210000C4F20101884205D040F60001C4F200018A
:10211000884206D1816801F00701062904BF00202A
:102120007047016841F00101016000207047000024
:10213000FEE7000070B540F60045C4F20105A5F5C4
:102140008064064620464FF400610022FEF78AFEB6
:1021500020464FF480510122FEF784FE20464FF4C2
:1021600080610122FEF77EFEC6F3001228464FF47E
:102170000041FEF777FEC6F3401228464FF4804137
:10218000FEF770FEC6F3801228464FF48051FEF72A
:1021900069FEF20928464FF40051FEF763FE20461F
:1021A0004FF480610022FEF75DFE0520FEF734FC4F
:1021B00020464FF480610122FEF754FE06F0010232
:1021C00028464FF40041FEF74DFEC6F34002284674
:1021D0004FF48041FEF746FEC6F3800228464FF4D6
:1021E0008051FEF73FFEC6F3C00228464FF400516F
:1021F000FEF738FE20464FF480610022FEF732FEE3
:102200000520BDE87040FEF707BC000070B540F641
:102210000045C4F20105A5F58064064620464FF44A
:1022200000610022FEF71EFE20464FF4805100227E
:10223000FEF718FE20464FF480610122FEF712FEE1
:10224000C6F3001228464FF40041FEF70BFEC6F31A
:10225000401228464FF48041FEF704FEC6F3801278
:1022600028464FF48051FEF7FDFDF20928464FF451
:102270000051FEF7F7FD20464FF480610022FEF783
:10228000F1FD0520FEF7C8FB20464FF480610122D6
:10229000FEF7E8FD06F0010228464FF40041FEF784
:1022A000E1FDC6F3400228464FF48041FEF7DAFD17
:1022B000C6F3800228464FF48051FEF7D3FDC6F3E3
:1022C000C00228464FF40051FEF7CCFD20464FF4E3
:1022D00080610022FEF7C6FD0520BDE87040FEF7D4
:1022E0009BBB000010B50178002908BF10BD441E3B
:1022F000C8B2FFF71FFFA17801340029F8D110BD43
:10230000F0B583B040F60004C4F201042046102169
:1023100000220026FEF7A6FD40F2BC05A820C2F26E
:1023200000058DF809000A270DF1090102AA2846C7
:1023300001230097FFF7A6F90DF10B010DF10A0239
:10234000284601238DF80B600097FFF79BF99DF855
:102350000A50204610210122FEF784FDA80701D073
:1023600003B0F0BD1420032100F014FA03B0F0BD57
:102370002DE9F04184B040F60005C4F201050446A1
:102380002846102100224FF00008FEF76BFD40F2B6
:10239000BC061A20C2F200068DF80D000A270DF1C6
:1023A0000D0103AA304601230097FFF76BF90DF1E9
:1023B0000F010DF10E02304601238DF80F800097BA
:1023C000FFF760F9284610210122FEF74BFD42F28B
:1023D000930020800DF10A070C202146022223469B
:1023E000009700F033FA18B104B0BDE8F08100BFE7
:1023F00020786178A278E3784840504021795840AD
:10240000401A18BF0120400004B0BDE8F081000070
:102410002DE9F04784B040F6000806468020C4F25B
:1024200001088A4640EA46044046102100224FF047
:102430000009FEF717FD40F2BC05C2F200058DF859
:1024400009400A240DF1090102AA2846012300943B
:10245000FFF718F90DF10B010DF10A0228460123CF
:102460008DF80B900094FFF70DF99DF80A70404627
:1024700010210122FEF7F6FC7E2000EA46064046C7
:102480001021002227EA0A07FEF7ECFC0DF10D01EE
:1024900003AA284601238DF80D600094FFF7F2F897
:1024A0000DF10F010DF10E02284601238DF80F707A
:1024B0000094FFF7E7F8404610210122FEF7D2FC16
:1024C00004B0BDE8F0870000F0B583B040F600042A
:1024D000C4F201042046102100220027FEF7C2FCAE
:1024E00040F2BC050220C2F200058DF80B000A265E
:1024F0000DF10B010DF10A02284601230096FFF7AA
:10250000C1F80F208DF80B000DF10B010DF10A023F
:10251000284601230096FFF7B5F820461021012236
:10252000FEF7A0FC204610210022FEF79BFC542061
:102530008DF80B000DF10B010DF10A022846012365
:102540000096FFF79FF88D208DF80B000DF10B0121
:102550000DF10A02284601230096FFF793F8204662
:1025600010210122FEF77EFC204610210022FEF7FA
:1025700079FC56208DF80B000DF10B010DF10A02CC
:10258000284601230096FFF77DF83E208DF80B00CA
:102590000DF10B010DF10A02284601230096FFF709
:1025A00071F8204610210122FEF75CFC2046102124
:1025B0000022FEF757FC5A208DF80B000DF10B019D
:1025C0000DF10A02284601230096FFF75BF81E2052
:1025D0008DF80B000DF10B010DF10A0228460123C5
:1025E0000096FFF74FF8204610210122FEF73AFC33
:1025F000204610210022FEF735FC58208DF80B00F4
:102600000DF10B010DF10A02284601230096FFF798
:1026100039F80DF10B010DF10A02284601238DF85E
:102620000B700096FFF72EF8204610210122FEF7CE
:1026300019FC204610210022FEF714FC4C208DF8D6
:102640000B000DF10B010DF10A0228460123009643
:10265000FFF718F870208DF80B000DF10B010DF14C
:102660000A02284601230096FFF70CF820461021A5
:102670000122FEF7F7FB204610210022FEF7F2FBB5
:102680002A208DF80B000DF10B010DF10A022846EE
:1026900001230096FEF7F6FF40208DF80B000DF1A8
:1026A0000B010DF10A02284601230096FEF7EAFF0E
:1026B000204610210122FEF7D5FB204610210022E2
:1026C000FEF7D0FB22208DF80B000DF10B010DF170
:1026D0000A02284601230096FEF7D4FF3D208DF81C
:1026E0000B000DF10B010DF10A02284601230096A3
:1026F000FEF7C8FF204610210122FEF7B3FBFFF7CB
:10270000FFFD03B0F0BD00002DE9F04184B040F6BC
:102710000008C4F201080C4605464046102100227C
:10272000FEF7A0FB40F2BC071A20C2F200078DF8AA
:102730000D000A260DF10D0103AA3846012300966B
:10274000FEF7A0FF07208DF80F000DF10F010DF12E
:102750000E02384601230096FEF794FF40461021F2
:102760000122FEF77FFB0DF10A070C202146012212
:1027700023462570009700F069F8BDF80A1010296B
:10278000014618BF0221002818BF0221084604B0E4
:10279000BDE8F0812DE9F04784B040F60008064618
:1027A0008020C4F201088A4640EA460440461021CF
:1027B00000224FF00009FEF755FB40F2BC05C2F2C3
:1027C00000058DF809400A240DF1090102AA2846E6
:1027D00001230094FEF756FF0DF10B010DF10A02E3
:1027E000284601238DF80B900094FEF74BFF9DF8CF
:1027F0000A70404610210122FEF734FB7E2000EAD9
:10280000460640461021002247EA0A07FEF72AFB47
:102810000DF10D0103AA284601238DF80D600094E7
:10282000FEF730FF0DF10F010DF10E0228460123D6
:102830008DF80F700094FEF725FF4046102101220D
:10284000FEF710FB04B0BDE8F08700002DE9F04F63
:1028500087B017460C2888460293049006D00E28AD
:1028600008D111200590122007E000BF312005900B
:10287000772002E001200590002040F60006C4F217
:102880000106039000F180053046102100224FF030
:102890000009FEF7E7FA40F2BC0A0420C2F2000A7F
:1028A0008DF81B000A240DF11B010DF11A02504690
:1028B00001230094FEF7E6FE0DF11B010DF11A0253
:1028C000504601238DF81B500094FEF7DBFE304686
:1028D00010210122FEF7C6FA04208021FFF798FD9F
:1028E0000A208021FFF756FF304610210022FEF714
:1028F000B9FA02208DF81B000DF11B010DF11A022F
:10290000504601230094FEF7BDFE0DF11B010DF1B1
:102910001A02504601238DF81B900094FEF7B2FE78
:10292000304610210122FEF79DFA67B340F2BC0A3F
:10293000A8F10105C2F2000A0DF11B090DF11A08F8
:1029400015F801BF3046102100220A24FEF78AFA4A
:1029500012208DF81B005046494642460123009440
:10296000FEF790FE0A2450464946424601238DF860
:102970001BB00094FEF786FE304610210122FEF7C0
:1029800071FA013FDCD1304610210022FEF76AFACD
:1029900040F2BC070220C2F200078DF81B000DF1C7
:1029A0001B010DF11A02384601230094FEF76AFE5E
:1029B000049D0DF11B010DF11A02384601238DF81B
:1029C0001B500094FEF75EFE304610210122FEF7F8
:1029D00049FA0C2D03D10D208021FFF7DBFE40F2D8
:1029E000BC094FF4FA654FF088084FF00A0AC2F2AA
:1029F00000090DF11B0B0DF11A0700BF3046102125
:102A00000022FEF72FFA484659463A4601238DF830
:102A10001B80CDF800A0FEF735FE00208DF81B00CE
:102A2000484659463A460123CDF800A0FEF72AFE53
:102A30009DF81A40304610210122FEF713FA013D9D
:102A4000280439D005982042D8D00D208021FFF7E6
:102A5000DFFC3046102100224FF00008FEF702FA9A
:102A600040F2BC058C20C2F200058DF81B000A273D
:102A70000DF11B010DF11A02284601230097FEF704
:102A800001FE0DF11B010DF11A02284601238DF8FC
:102A90001B800097FEF7F6FD9DF81A503046102176
:102AA0000122FEF7DFF915F01B0F0FD00225284693
:102AB00007B0BDE8F08F00BF0D208021FFF7A8FC14
:102AC0000225284607B0BDE8F08F00BF039804999F
:102AD00020400C2900F00105E9D1304610210022E8
:102AE00010244FF00009FEF7BDF940F2BC08942015
:102AF000C2F200088DF81B004FF00A0A0DF11B010D
:102B00000DF11A0240460123CDF800A0FEF7BAFDF0
:102B10000DF11B010DF11A02404601238DF81B90A7
:102B2000CDF800A0FEF7AEFD9DF81A7030461021DA
:102B30000122FEF797F9304610210022FEF792F9A4
:102B400098208DF81B000DF11B010DF11A02404673
:102B50000123CDF800A0FEF795FD0DF11B010DF14D
:102B60001A02404601238DF81B90CDF800A0FEF715
:102B700089FD9DF81A80304610210122FEF772F976
:102B800018F0070040EAC700A0F1080008BFF800ED
:102B9000102F38BF3C46002F109908BF0124002C8D
:102BA000088084D0029840F2BC0BA0F10108C2F268
:102BB000000B0DF11B074FF00A0A0DF11A090595DC
:102BC000304610210022FEF74DF992208DF81B00AF
:102BD000584639464A460123CDF800A0FEF752FD7B
:102BE00000208DF81B00584639464A460123CDF88F
:102BF00000A0FEF747FD9DF81A5030461021012233
:102C0000FEF730F9013C08F8015FD9D1059D28464F
:102C100007B0BDE8F08F0000FEE70000FEE700000F
:102C2000704700002DE9F04182B01E4690460D46E7
:102C30000446FEF71DF9301A00EB0807FEF718F9F5
:102C400040F21C01C2F200010968C1F3CB317943A3
:102C5000019121688A682A40AA4227D1064618F1C4
:102C600001001FD0FEF704F9801BB84222D2019860
:102C700001990028A1F1010101912168896808BF2B
:102C8000074601EA0500A842ECD00FE0886828401A
:102C9000A8420BD188682840A84207D188682840FC
:102CA000A84203D188682840A842EFD0002002B093
:102CB000BDE8F081D4E900014268B1F5827F22F0DD
:102CC000E00242600AD1A168B1F5004F02D0B1F52F
:102CD000806F03D1016821F040010160A16AB1F564
:102CE000005F07D1016821F400510160016841F4DF
:102CF00000510160012084F85100002084F8500048
:102D0000032002B0BDE8F08170470000FEF7B6B8BE
:102D100070470000FEE70000F0B581B040F2800689
:102D2000C2F200060C46317815460768B06801EB20
:102D30004101062202EB4101FDF779FA0028B0605B
:102D40004AD03178002C01EB410200EB420340F8FD
:102D5000127001F101001C715D7130701CBF01B077
:102D6000F0BD0120FFF752FA8020FFF74FFA542000
:102D7000FFF7E0F96820FFF7DDF96520FFF7DAF9E2
:102D80006D20FFF7D7F92020FFF7D4F95420FFF783
:102D9000D1F96820FFF7CEF96120FFF7CBF96E205B
:102DA000FFF7C8F96820FFF7C5F92020FFF7C2F93F
:102DB0004320FFF7BFF96F20FFF7BCF96E20FFF744
:102DC000B9F96720FFF7B6F94FF4FA6001B0BDE832
:102DD000F040FDF721BE00BF0120FFF717FA802069
:102DE000FFF714FA44F66A50C0F60000FFF77AFACB
:102DF0004FF4FA60FDF710FE0120FDF729FB0000FB
:102E000010B586B00446FDF7F3FE01200590CDE92C
:102E100003040020029002A801A9FDF711FEFDF7AE
:102E200087FE06B010BD0000B0B50C460546FDF7A4
:102E3000DFFE2288012029460023FDF783FE6288F9
:102E4000A91C01200023FDF77DFEA288291D012079
:102E50000023FDF777FEBDE8B040FDF769BE000036
:102E600098B0FEF719F801AC201D2421FDF7F9FAFE
:102E70000220019001200590102006900025204698
:102E80000895FEF793F928B1EFF3108072B600BFF2
:102E9000FEE700BF0F20CDE90B050BA80021CDE90F
:102EA0000D550F95FEF7A2F820B1EFF3108072B622
:102EB000FEE700BF002741F218000497C4F20200A9
:102EC000016840F6004941F0100101600168C4F258
:102ED000010901F010010B910B990168A9F58065BA
:102EE00041F0200101600168002201F020010B91F6
:102EF0000B99016849F6184441F00401016001682A
:102F000001F004010B910B99016841F00801016087
:102F1000006849F6184100F008000B900B9828460D
:102F2000FDF7A0FF48464FF4724100224FF472486B
:102F3000FDF798FF4FF4604001AECDE9010709F5B8
:102F4000806031460397FDF779FE0020C1F2210031
:102F50004FF0010ACDE9020728463146CDF804A01A
:102F6000FDF76CFE4FF0020B28463146CDE901B764
:102F70000397FDF763FE28463146CDE9014ACDE9C6
:102F8000037BFDF75BFE48463146CDE9018ACDE97A
:102F9000037BFDF753FE4FF4FC70CDE90107484673
:102FA00031460397FDF74AFE062001210022FDF776
:102FB000E1FF0620FDF7CAFF40F2BC0009F5105101
:102FC000C2F200004FF482724FF4007380E8860072
:102FD0000A21C0E90377C0E90573C761C0E9087732
:102FE000C0E90A71FEF7BCFA20B1EFF3108072B6A7
:102FF000FEE700BF40F2141009F50051C2F20000D4
:1030000040F2E7331797CDE91577CDE912770797A7
:103010009F2280E88600C0E90337C0E90577FEF704
:1030200013FD28B1EFF3108072B600BFFEE700BFBA
:103030004FF48050149040F21410C2F2000014A912
:10304000FEF792FD20B1EFF3108072B6FEE700BFED
:1030500040F21410C2F20000FEF782FF20B1EFF33D
:10306000108072B6FEE700BF40F21410C2F20000FA
:1030700012A9FEF7ABFC28B1EFF3108072B600BFC7
:10308000FEE700BF60200B900020CDE90C00CDE9E9
:103090000E00CDE9100040F21410C2F200000BA99E
:1030A0000022FEF757FE28B1EFF3108072B600BF82
:1030B000FEE700BF40F21410C2F200000BA9042288
:1030C000FEF748FE20B1EFF3108072B6FEE700BFB6
:1030D00000200590CDE90300CDE901004FF4005137
:1030E000089040F214100691C2F2000001A9FEF708
:1030F00047FC28B1EFF3108072B600BFFEE700BFB7
:1031000040F214104FF60044C2F20000C0F6000472
:10311000FEF7F8FDFFF7D8F90320FFF777F8022054
:10312000FFF774F82820FFF771F806200626FFF74E
:103130006DF80C20FFF76AF80120FFF767F82846C2
:103140004FF400410122FDF78DFE4FF4FA70FDF7B8
:1031500063FC28464FF400410022FDF783FE4FF444
:10316000FA70FDF759FC28464FF400410122FDF7A3
:1031700079FE4FF4FA70FDF74FFC28464FF40041FA
:103180000022FDF76FFE4FF4FA70FDF745FC28466C
:103190004FF400410122FDF765FE4FF4FA70FDF790
:1031A0003BFC28464FF400410022FDF75BFE4FF444
:1031B000FA70FDF731FC28464FF400410122FDF77B
:1031C00051FE4FF4FA60FDF727FC2046FFF718FE8A
:1031D00040F28008C2F2000840F2000098F80010A7
:1031E000C2F200000768D8F8080001EB410106EBC5
:1031F0004101FDF71CF80028C8F8080000F05686C9
:1032000098F8001001EB410200EB420340F8127005
:1032100001209880481C88F800000120FEF7F6FF86
:103220008020FEF7F3FF2D20FEF784FF2D20FEF710
:1032300081FF2D20FEF77EFF2020FEF77BFF582028
:10324000FEF778FF4920FEF775FF4E20FEF772FF6C
:103250002020FEF76FFF4320FEF76CFF4820FEF7AB
:1032600069FF4120FEF766FF4F20FEF763FF202035
:10327000FEF760FF2D20FEF75DFF2D20FEF75AFFC1
:103280002D20FEF757FFC020FEF7C0FF2D20FEF7D0
:1032900051FF2D20FEF74EFF2D20FEF74BFF202083
:1032A000FEF748FF2020FEF745FF4D20FEF742FFC6
:1032B0004120FEF73FFF5320FEF73CFF5420FEF76E
:1032C00039FF4520FEF736FF5220FEF733FF20205E
:1032D000FEF730FF2020FEF72DFF2D20FEF72AFFFE
:1032E0002D20FEF727FF2D20FEF724FF41F2883026
:1032F000FDF792FB0120FEF789FF8020FEF786FF95
:103300002D20FEF717FF2D20FEF714FF2D20FEF7CE
:1033100011FF2020FEF70EFF5820FEF70BFF49207B
:10332000FEF708FF4E20FEF705FF2020FEF702FF04
:103330004320FEF7FFFE4820FEF7FCFE4120FEF78B
:10334000F9FE4F20FEF7F6FE2020FEF7F3FE2D20BB
:10335000FEF7F0FE2D20FEF7EDFE2D20FEF7EAFE33
:10336000C020FEF753FF2D20FEF7E4FE2D20FEF7D0
:10337000E1FE2D20FEF7DEFE2020FEF7DBFE5120D1
:10338000FEF7D8FE5520FEF7D5FE5920FEF7D2FEF7
:103390002020FEF7CFFE4B20FEF7CCFE4820FEF7A4
:1033A000C9FE4120FEF7C6FE4320FEF7C3FE4820BB
:1033B000FEF7C0FE2020FEF7BDFE2D20FEF7BAFE70
:1033C0002D20FEF7B7FE41F28830FDF725FB40F2D5
:1033D0001414C2F2000420460021FEF739FE2046F4
:1033E0000421FEF735FE206844F62A5A3221C0F641
:1033F000000A4163816300BF40F2000BC2F2000B80
:1034000028460221FDF728FD0138B0FA80F0420974
:1034100028460821FDF726FD08F110062620314632
:10342000FFF772F9002840F04B813046FEF7A0FF0D
:10343000002840F0458198F800000021C8F80410E9
:1034400098B1D8F808100022052600BF8B1953F850
:10345000053CD8F810709F4200F052810132904232
:1034600006F10606C8F80420F0D128464FF40061A2
:1034700000220026FDF7F6FC28464FF4805100227A
:10348000FDF7F0FC28464FF480610122FDF7EAFCCD
:1034900048464FF400410022FDF7E4FC48464FF453
:1034A00080410022FDF7DEFC48464FF480510022A7
:1034B000FDF7D8FC48464FF400510022FDF7D2FC3E
:1034C00028464FF480610022FDF7CCFC0520FDF773
:1034D000A3FA28464FF480610122FDF7C3FC484659
:1034E0004FF400410122FDF7BDFC48464FF48041F6
:1034F0000022FDF7B7FC48464FF480510022FDF74B
:10350000B1FC48464FF400510022FDF7ABFC2846C1
:103510004FF480610022FDF7A5FC0520FDF77CFA41
:1035200028464FF400610022FDF79CFC28464FF42A
:1035300080510022FDF796FC28464FF4806101225D
:10354000FDF790FC48464FF400410022FDF78AFC4D
:1035500048464FF480410022FDF784FC48464FF472
:1035600080510022FDF77EFC48464FF400510122B5
:10357000FDF778FC28464FF480610022FDF772FCCD
:103580000520FDF749FA28464FF480610122FDF736
:1035900069FC48464FF400410022FDF763FC4846B1
:1035A0004FF480410022FDF75DFC48464FF4805106
:1035B0000022FDF757FC48464FF400510022FDF76A
:1035C00051FC28464FF480610022FDF74BFC05209A
:1035D000FDF722FA44F64C5A2D27C0F6000A00BF28
:1035E00028464FF400610022FDF73CFC28464FF4CA
:1035F00080510122FDF736FC28464FF480610122FC
:10360000FDF730FCC7F3001248464FF40041FCB20E
:10361000FDF728FCC7F3401248464FF48041FDF700
:1036200021FCC7F3801248464FF48051FDF71AFC85
:10363000E20948464FF40051FDF714FC28464FF4C8
:1036400080610022FDF70EFC0520FDF7E5F9284614
:103650004FF480610122FDF705FC07F001024846A6
:103660004FF40041FDF7FEFBC7F3400248464FF41C
:103670008041FDF7F7FBC7F3800248464FF48051C5
:10368000FDF7F0FBC7F3C00248464FF40051FDF7C9
:10369000E9FB28464FF480610022FDF7E3FB05209B
:1036A000FDF7BAF90AEB060047780136102E97D1DC
:1036B0004FF4FA60FDF7B0F944F62A5AC0F6000A52
:1036C000DBF80400002800F005820020C8F80400A0
:1036D0000BEB400001894846FDF7BEFBD8F804100B
:1036E00000284FF0300008EB010208BF5820107589
:1036F000481C0C28C8F80400EAD300F0EBFB7FE676
:10370000002A00F04581895DDBF80400002940F0C3
:1037100043810128C0F24081411E022838BF0021A8
:10372000CBF8041028464FF4006100220024FDF776
:1037300099FB28464FF480510022FDF793FB284661
:103740004FF480610122FDF78DFB48464FF40041A4
:103750000022FDF787FB48464FF480410022FDF729
:1037600081FB48464FF480510022FDF77BFB484621
:103770004FF400510022FDF775FB28464FF480619D
:103780000022FDF76FFB0520FDF746F928464FF4B0
:1037900080610122FDF766FB48464FF4004101229B
:1037A000FDF760FB48464FF480410022FDF75AFBCD
:1037B00048464FF480510022FDF754FB48464FF431
:1037C00000510022FDF74EFB28464FF48061002295
:1037D000FDF748FB0520FDF71FF928464FF400616F
:1037E0000022FDF73FFB28464FF480510022FDF7F1
:1037F00039FB28464FF480610122FDF733FB484630
:103800004FF400410022FDF72DFB48464FF4804164
:103810000022FDF727FB48464FF480510022FDF7B8
:1038200021FB48464FF400510122FDF71BFB2846BF
:103830004FF480610022FDF715FB0520FDF7ECF841
:1038400028464FF480610122FDF70CFB48464FF4F7
:1038500000410022FDF706FB48464FF4804100225C
:10386000FDF700FB48464FF480510022FDF7FAFABD
:1038700048464FF400510022FDF7F4FA28464FF471
:1038800080610022FDF7EEFA0520FDF7C5F82D272F
:1038900028464FF400610022FDF7E4FA28464FF471
:1038A00080510122FDF7DEFA28464FF480610122A3
:1038B000FDF7D8FAC7F3001248464FF400415FFA0B
:1038C00087FAFDF7CFFAC7F3401248464FF480411C
:1038D000FDF7C8FAC7F3801248464FF48051FDF750
:1038E000C1FA4FEADA1248464FF40051FDF7BAFA2E
:1038F00028464FF480610022FDF7B4FA0520FDF759
:103900008BF828464FF480610122FDF7ABFA07F0EF
:10391000010248464FF40041FDF7A4FAC7F3400204
:1039200048464FF48041FDF79DFAC7F380024846B0
:103930004FF48051FDF796FAC7F3C00248464FF4A2
:103940000051FDF78FFA28464FF480610022FDF701
:1039500089FA0520FDF760F844F61950C0F600001A
:10396000204447780134102C92D140F21414C2F252
:10397000000420686421416341F28830FDF74CF86F
:10398000D8F808000121815520683221416393E66F
:1039900000F00CFB94E600BF01297FF491AE0528EE
:1039A0003FF78EAE411C04284FF00100C8BF06212E
:1039B000CBF80410FEF72AFC8020FEF727FC2D2709
:1039C000002428464FF400610022FDF74BFA2846F8
:1039D0004FF480510122FDF745FA28464FF48061EB
:1039E0000122FDF73FFAC7F3001248464FF40041A9
:1039F0005FFA87FAFDF736FAC7F3401248464FF4EC
:103A00008041FDF72FFAC7F3801248464FF48051EA
:103A1000FDF728FA4FEADA1248464FF40051FDF755
:103A200021FA28464FF480610022FDF71BFA052099
:103A3000FCF7F2FF28464FF480610122FDF712FAED
:103A400007F0010248464FF40041FDF70BFAC7F3B7
:103A5000400248464FF48041FDF704FAC7F3800264
:103A600048464FF48051FDF7FDF9C7F3C0024846C0
:103A70004FF40051FDF7F6F928464FF4806100221B
:103A8000FDF7F0F90520FCF7C7FF44F60850C0F633
:103A90000000204447780134102C92D1D8F8081047
:103AA0004FF60040C0F60000FFF7BEF940F21414D4
:103AB000C2F2000420686421816341F28830FCF77F
:103AC000ABFFD8F8080000218155206832218163BE
:103AD000F2E500BF28464FF4006100220026FDF702
:103AE000C1F928464FF480510022FDF7BBF9284662
:103AF0004FF480610122FDF7B5F948464FF40041CB
:103B00000022FDF7AFF948464FF480410022FDF74F
:103B1000A9F948464FF480510022FDF7A3F9484621
:103B20004FF400510022FDF79DF928464FF48061C3
:103B30000022FDF797F90520FCF76EFF28464FF4A9
:103B400080610122FDF78EF948464FF400410122C1
:103B5000FDF788F948464FF480410022FDF782F9CD
:103B600048464FF480510022FDF77CF948464FF457
:103B700000510022FDF776F928464FF480610022BB
:103B8000FDF770F90520FCF747FF28464FF4006168
:103B90000022FDF767F928464FF480510022FDF717
:103BA00061F928464FF480610122FDF75BF9484630
:103BB0004FF400410022FDF755F948464FF480418B
:103BC0000022FDF74FF948464FF480510022FDF7DF
:103BD00049F948464FF400510122FDF743F92846C0
:103BE0004FF480610022FDF73DF90520FCF714FF3A
:103BF00028464FF480610122FDF734F948464FF41E
:103C000000410022FDF72EF948464FF48041002282
:103C1000FDF728F948464FF480510022FDF722F9BC
:103C200048464FF400510022FDF71CF928464FF496
:103C300080610022FDF716F90520FCF7EDFE2D2727
:103C400028464FF400610022FDF70CF928464FF496
:103C500080510122FDF706F928464FF480610122C8
:103C6000FDF700F9C7F3001248464FF40041FCB2DB
:103C7000FDF7F8F8C7F3401248464FF48041FDF7CE
:103C8000F1F8C7F3801248464FF48051FDF7EAF887
:103C9000E20948464FF40051FDF7E4F828464FF496
:103CA00080610022FDF7DEF80520FCF7B5FE28460E
:103CB0004FF480610122FDF7D5F807F00102484674
:103CC0004FF40041FDF7CEF8C7F3400248464FF4E9
:103CD0008041FDF7C7F8C7F3800248464FF4805192
:103CE000FDF7C0F8C7F3C00248464FF40051FDF796
:103CF000B9F828464FF480610022FDF7B3F805209B
:103D0000FCF78AFE0AEB060047780136102E97D1A1
:103D100028464FF4006100220026FDF7A3F828464C
:103D20004FF480510022FDF79DF828464FF4806142
:103D30000122FDF797F848464FF400410022FDF7B5
:103D400091F848464FF480410022FDF78BF8484631
:103D50004FF480510122FDF785F848464FF4005199
:103D60000122FDF77FF828464FF480610022FDF71D
:103D700079F80520FCF750FE28464FF480610122B7
:103D8000FDF770F848464FF400410022FDF76AF84D
:103D900048464FF480410022FDF764F848464FF44E
:103DA00080510022FDF75EF848464FF40051002292
:103DB000FDF758F828464FF480610022FDF752F8CD
:103DC0000520FCF729FE44F63B5B2D27C0F6000BCF
:103DD00028464FF400610022FDF744F828464FF4CE
:103DE00080510122FDF73EF828464FF48061012200
:103DF000FDF738F8C7F3001248464FF40041FCB213
:103E0000FDF730F8C7F3401248464FF48041FDF704
:103E100029F8C7F3801248464FF48051FDF722F885
:103E2000E20948464FF40051FDF71CF828464FF4CC
:103E300080610022FDF716F80520FCF7EDFD28460D
:103E40004FF480610122FDF70DF807F001024846AA
:103E50004FF40041FDF706F8C7F3400248464FF41F
:103E60008041FCF7FFFFC7F3800248464FF48051C2
:103E7000FCF7F8FFC7F3C00248464FF40051FCF7C7
:103E8000F1FF28464FF480610022FCF7EBFF05208C
:103E9000FCF7C2FD0BEB060047780136102E97D1D8
:103EA0004FF4FA70FCF7B8FDFFF7A6BA0120FEF751
:103EB000ADF98020FEF7AAF944F66A50C0F600007A
:103EC000FEF710FA4FF4FA60FCF7A6FD0120FCF7AC
:103ED000BFFA0000B0B586B08020FEF797F95620F3
:103EE000FEF728F95420FEF725F95220FEF722F9B3
:103EF0004920FEF71FF93A20FEF71CF93120FEF7A2
:103F000019F92020FEF716F93220FEF713F92020C8
:103F1000FEF710F93320FEF70DF92020FEF70AF91D
:103F20003420FEF707F92020FEF704F93520FEF7CC
:103F300001F92020FEF7FEF83620FEF7FBF840F2EC
:103F4000000040F28005C2F20000C2F200054268A3
:103F5000687DEC7D2B7DA97D95F818C095F819E05A
:103F60008DE8131005F11A040AA12046CDF810E0DF
:103F7000FCF7C0F9C020FEF749F9A87E38B100BFB0
:103F8000C0B2FEF7D7F814F8010F0028F8D106B038
:103F9000B0BD00BF205B25645D2025632025632024
:103FA0002563202563202563202563002DE9F0414A
:103FB00041F200040120C4F201040127FEF726F9B2
:103FC0008020FEF723F94D20FEF7B4F84520FEF7D8
:103FD000B1F84E20FEF7AEF85520FEF7ABF82020E2
:103FE000FEF7A8F84820FEF7A5F84520FEF7A2F84E
:103FF0002020FEF79FF85420FEF79CF84820FEF79B
:1040000099F84F20FEF796F84E20FEF793F84720D8
:10401000FEF790F84FF4FA60FCF7FEFC40F28006E1
:10402000C2F2000606F10C054FF0000804E000BFE4
:10403000042FC8BF012700BF20464FF48041FCF782
:104040000BFF38B920464FF48041FCF705FF0028EC
:10405000F8D00137781E0328EAD8DFE800F0032BF8
:10406000517900BF00F012F926202946FEF74CFBDB
:1040700000284FF00107DFD12846FEF779F9002824
:104080004FF00107D8D1307801270028C6F8048006
:10409000D2D0B268002100BF1368F7689F4200F0D9
:1040A0007F800131063288424FF001077160F3D101
:1040B000C2E700BF00F08AF926202946FEF724FB5C
:1040C00000284FF00207B7D12846FEF751F9002823
:1040D0004FF00207B0D1307802270028C6F80480DC
:1040E000AAD0B268002100BF1368F7689F4261D070
:1040F0000131063288424FF002077160F4D19BE72C
:1041000000F074F826202946FEF7FEFA00284FF04A
:1041100003077FF491AF2846FEF72AF900284FF0F5
:1041200003077FF489AF307803270028C6F804809E
:104130003FF482AFB26800211368F7689F4243D012
:104140000131063288424FF003077160F4D173E702
:1041500000F0ECF826202946FEF7D6FA00284FF0AA
:1041600004077FF469AF2846FEF702F900284FF0F4
:1041700004077FF461AF307804270028C6F8048074
:104180003FF45AAFB26800211368F7689F4225D008
:104190000131063288424FF004077160F4D14BE7D9
:1041A00000294FF001077FF447AF00F05DFA0127C7
:1041B00042E700BF00294FF002077FF43DAF00F057
:1041C00055FB012738E700BF00294FF003077FF4B4
:1041D00033AF00F04BF901272EE700BF00294FF065
:1041E000040708BFBDE8F08126E7000080B5012084
:1041F000FEF70CF88020FEF709F83E20FDF79AFF45
:104200002020FDF797FF3320FDF794FF2E20FDF7C8
:1042100091FF2020FDF78EFF5220FDF78BFF6520D8
:10422000FDF788FF7320FDF785FF6520FDF782FF0E
:104230007420FDF77FFF2020FDF77CFF4920FDF76C
:1042400079FF4420FDF776FFC020FDF7DFFF342023
:10425000FDF770FF2E20FDF76DFF2020FDF76AFFB0
:104260005420FDF767FF6820FDF764FF6F20FDF71E
:1042700061FF6120FDF75EFF7420FDF75BFF4FF4E7
:104280007A70BDE88040FCF7C7BB000080B5012014
:10429000FDF7BCFF8020FDF7B9FF3E20FDF74AFF88
:1042A0002020FDF747FF3120FDF744FF2E20FDF7CA
:1042B00041FF2020FDF73EFF5420FDF73BFF682023
:1042C000FDF738FF6520FDF735FF6D20FDF732FF64
:1042D0002020FDF72FFF4920FDF72CFF4420FDF79C
:1042E00029FFC020FDF792FF3220FDF723FF2E208B
:1042F000FDF720FF2020FDF71DFF5820FDF71AFFD6
:104300006F20FDF717FF6120FDF714FF2020FDF758
:1043100011FF4920FDF70EFF4420FDF70BFF4FF47E
:104320007A70BDE88040FCF777BB000080B50120C3
:10433000FDF76CFF8020FDF769FF3320FDF7FAFEE3
:104340002E20FDF7F7FE2020FDF7F4FE5220FDF7AA
:10435000F1FE6520FDF7EEFE7320FDF7EBFE652014
:10436000FDF7E8FE7420FDF7E5FE2020FDF7E2FEF4
:104370004920FDF7DFFE4420FDF7DCFEC020FDF7FD
:1043800045FF3E20FDF7D6FE2020FDF7D3FE34206A
:10439000FDF7D0FE2E20FDF7CDFE2020FDF7CAFE52
:1043A0005420FDF7C7FE6820FDF7C4FE6F20FDF71F
:1043B000C1FE6120FDF7BEFE7420FDF7BBFE4FF489
:1043C0007A70BDE88040FCF727BB000080B5012073
:1043D000FDF71CFF8020FDF719FF3120FDF7AAFE35
:1043E0002E20FDF7A7FE2020FDF7A4FE5420FDF7A8
:1043F000A1FE6820FDF79EFE6520FDF79BFE6D2067
:10440000FDF798FE2020FDF795FE4920FDF792FE6E
:104410004420FDF78FFEC020FDF7F8FE3E20FDF79B
:1044200089FE2020FDF786FE3220FDF783FE2E2038
:10443000FDF780FE2020FDF77DFE5820FDF77AFE77
:104440006F20FDF777FE6120FDF774FE2020FDF759
:1044500071FE4920FDF76EFE4420FDF76BFE4FF420
:104460007A70BDE88040FCF7D7BA00002DE9F04132
:1044700040F28004C2F2000420780228C0F0A2803A
:10448000A068FBF7ADFE0020042140F20007207079
:10449000C4E90110C2F20007062601207E604FF039
:1044A0000108FDF7B3FE8020FDF7B0FE2D20FDF7DB
:1044B00041FE2D20FDF73EFE2020FDF73BFE202093
:1044C000FDF738FE4D20FDF735FE6F20FDF732FE7B
:1044D0006920FDF72FFE2020FDF72CFE5820FDF768
:1044E00029FE6520FDF726FE2020FDF723FE522041
:1044F000FDF720FE6120FDF71DFE2020FDF71AFECE
:104500002D20FDF717FE2D20FDF714FE40F21415A7
:10451000C2F2000528686421816341F28830FCF70B
:104520007BFA2868322181632178A06801EB410180
:104530003F6806EB4101FBF77AFE0028A06000F01F
:104540007F80217801EB410200EB420340F81270BA
:10455000481C20700120A3F80480FDF757FE80203E
:10456000FDF754FE5820FDF7E5FD6F20FDF7E2FD55
:104570006120FDF7DFFD2020FDF7DCFD7420FDF755
:10458000D9FD6F20FDF7D6FD6120FDF7D3FD6E202C
:10459000FDF7D0FD2020FDF7CDFD6220FDF7CAFD1F
:1045A0006F20FDF7C7FD2020FDF7C4FD4920FDF772
:1045B000C1FD4420FDF7BEFDC020FDF727FE4324CA
:1045C000542019E00120FDF721FE8020FDF71EFE9A
:1045D0004B20FDF7AFFD6820FDF7ACFD6F20FDF728
:1045E000A9FD6E20FDF7A6FD6720FDF7A3FD2020A5
:1045F000FDF7A0FD63247420FDF79CFD6820FDF706
:1046000099FD6120FDF796FD6E20FDF793FD682072
:10461000FDF790FD2020FDF78DFD2046FDF78AFD7A
:104620006F20FDF787FD6E20FDF784FD6720FDF705
:1046300081FD4FF4FA60BDE8F041FCF7EDB900BF31
:104640000120FDF7E3FD8020FDF7E0FD44F66A5010
:10465000C0F60000FDF746FE4FF4FA60FCF7DCF907
:104660000120FBF7F5FE00002DE9F04F81B040F688
:10467000004440F2800AC4F2010444F65D5BC2F2D9
:10468000000AA4F58065C0F6000B0AF110090EE0DF
:10469000484600210022FEF73FFB00BF04F5806082
:1046A0004FF40041FCF7D8FB002800F0DB8001202C
:1046B0000126FDF7ABFD8020FDF7A8FD4D2700BFCB
:1046C00028464FF400610022FCF7CCFB28464FF44B
:1046D00080510122FCF7C6FB28464FF4806101227D
:1046E000FCF7C0FBC7F3001220464FF400415FFA0D
:1046F00087F8FCF7B7FBC7F3401220464FF4804120
:10470000FCF7B0FBC7F3801220464FF48051FCF752
:10471000A9FB4FEAD81220464FF40051FCF7A2FB48
:1047200028464FF480610022FCF79CFB0520FCF733
:1047300073F928464FF480610122FCF793FB07F0E0
:10474000010220464FF40041FCF78CFBC7F3400206
:1047500020464FF48041FCF785FBC7F380022046DA
:104760004FF48051FCF77EFBC7F3C00220464FF4A4
:104770000051FCF777FB28464FF480610022FCF7DC
:1047800071FB0520FCF748F91BF8067001360D2E69
:1047900096D14FF4FA70FCF73FF926204946FDF711
:1047A000B3FF00287FF47AAF4846FDF7E1FD00280B
:1047B0007FF474AF9AF8000000210028CAF80410B2
:1047C0003FF466AFDAF8081000220B461F68DAF8EB
:1047D0001060BE4208D00132904203F10603CAF8CD
:1047E0000420F3D101E000BF82B10022CAF8042006
:1047F0000B68DAF810709F4208D00132904201F144
:104800000601CAF80420F3D142E700BF0120FDF7FA
:10481000FDFC8020FDF7FAFC5420FDF78BFC6F2097
:10482000FDF788FC6E20FDF785FC2020FDF782FC5B
:104830007420FDF77FFC6120FDF77CFC6920FDF70B
:1048400079FC2020FDF776FC7420FDF773FC6820CE
:10485000FDF770FC6520FDF76DFC4FF47A70FCF7F6
:10486000DBF81BE701B0BDE8F08F00002DE9F04F49
:1048700085B040F6004940F2800AC4F2010944F6CE
:104880005D58C2F2000AA9F58065C0F600080AF179
:10489000100BCDF800B04EE00120FDF7B7FC8020F2
:1048A000FDF7B4FC4B20FDF745FC6820FDF742FC0A
:1048B0006F206F24FDF73EFC6E206E210291FDF704
:1048C00039FC69200390742074214FF47A776126B3
:1048D00004904FF0200A67204FF0200B0191FDF764
:1048E00029FC5046FDF726FC0498FDF723FC2046E2
:1048F000FDF720FC0298FDF71DFC5846FDF71AFC59
:104900000198FDF717FC3046FDF714FC0398FDF7FE
:1049100011FC3846FCF780F840F2800ADDF800B060
:10492000C2F2000A09F580604FF40041FCF794FAE6
:10493000002800F0C18101200126FDF767FC8020DE
:10494000FDF764FC4D2700BF28464FF400610022AC
:10495000FCF788FA28464FF480510122FCF782FACE
:1049600028464FF480610122FCF77CFAC7F300125D
:1049700048464FF40041FCB2FCF774FAC7F340120A
:1049800048464FF48041FCF76DFAC7F38012484661
:104990004FF48051FCF766FAE20948464FF40051A3
:1049A000FCF760FA28464FF480610022FCF75AFABF
:1049B0000520FCF731F828464FF480610122FCF70E
:1049C00051FA07F0010248464FF40041FCF74AFA59
:1049D000C7F3400248464FF48041FCF743FAC7F35F
:1049E000800248464FF48051FCF73CFAC7F3C002FE
:1049F00048464FF40051FCF735FA28464FF48061E1
:104A00000022FCF72FFA0520FCF706F818F80670CC
:104A100001360D2E98D14FF4FA70FBF7FDFF2620DA
:104A20005946FDF771FE00287FF47CAF5846FDF72C
:104A30009FFC00287FF476AF9AF800100020002930
:104A4000CAF804003FF428AFDAF80800002700266F
:104A5000C259DAF81030934208D00136B14207F15A
:104A60000607CAF80460F3D116E700BF002E6BD02A
:104A700038444279012A4ED140F20003C2F20003C9
:104A8000596800224271481C58600120FDF7BEFBA6
:104A90008020FDF7BBFB2D20FDF74CFB2D20FDF703
:104AA00049FB2020FDF746FB2020FDF743FB4D206E
:104AB000FDF740FB6F20FDF73DFB6920FDF73AFB5A
:104AC0002020FDF737FB5820FDF734FB6520FDF76C
:104AD00031FB2020FDF72EFB5220FDF72BFB612040
:104AE000FDF728FB2020FDF725FB2D20FDF722FBFD
:104AF0002D20FDF71FFB40F21414C2F200042068C1
:104B0000642181634FF4FA60FBF786FF206832214D
:104B100081639AF80010DAF80800B14256D9A1EB87
:104B2000060C1CF003025BD0C319D3F80640012A1F
:104B3000C4515F899F804BD10136ACF10102032A39
:104B40000A4652D272E000BF0120FDF75FFB8020D1
:104B5000FDF75CFB4B20FDF7EDFA6820FDF7EAFA64
:104B60006F20FDF7E7FA6E20FDF7E4FA6720FDF706
:104B7000E1FA202020210491FDF7DCFA7420FDF7F2
:104B8000D9FA6820FDF7D6FA6520FDF7D3FA202080
:104B9000FDF7D0FA7820FDF7CDFA6F20FDF7CAFABD
:104BA0006120FDF7C7FAC020FDF730FB52200390CB
:104BB0005420019041204FF47A7745264FF0530B53
:104BC00002904D244FF0440A492088E632462DE0F9
:104BD0001F8A022A5F81DF68C3F8067060D102363F
:104BE000ACF10102032A0A4620D306EB460200EB91
:104BF0004202A2F118031A46D3F81E70043642F896
:104C0000187F5789D2F812409780D768B142C3F80D
:104C10001E70138A97695381D38AD4601382938B51
:104C2000C2F81270D3821346E6D10A46CAF80420AD
:104C300001EB41016FF0050202EB4101FBF7F7FACE
:104C4000CAF80800E0B39AF8000001388AF80000BA
:104C50000120FDF7DBFA8020FDF7D8FA5820FDF798
:104C600069FA6F206F210191FDF764FA61204FF01E
:104C7000610AFDF75FFA202020210291FDF75AFA20
:104C80005420FDF757FA672003906E204FF4FA671F
:104C90004FF0430B0490682068246E261FE600BF87
:104CA000DA8AD3F8127003361A82DF60ACF101029F
:104CB000032A0A4699D2B9E705B0BDE8F08F00BFD4
:104CC0000120FDF7A3FA8020FDF7A0FA44F66A5010
:104CD000C0F60000FDF706FB4FF4FA60FBF79CFE00
:104CE0000120FBF7B5FB00000000000000000102FE
:104CF0000304060708090102020304050607080960
:104D00000A0B0C0D0E0F10102D2D20204D6F692059
:104D10005865205261202D2D002D2D204D6F6920CA
:104D200058652056616F202D2D002D2D2D204845D2
:104D30002054484F4E47202D2D2D002D2D2D2D2058
:104D40004845542043484F202D2D2D002D204B4801
:104D50004F4E4720544F4E205441492D004D6F690E
:104D6000206E6861702074686500426F206E686F05
:104D70002064617900000000984D000800000020C8
:104D80002000000028010008B84D00082000002085
:104D90006807000044010008D35CC236060000002A
:104DA0000800100020004000800000010100000009
:084DB000100000000024F400D3
:04000005080000ED02
:00000001FF
